:100000000C9434000C9461020C9451000C94510037
:100010000C9451000C9451000C9451000C9451001C
:100020000C9451000C9472010C9451000C945100EA
:100030000C9451000C9451000C9451000C945100FC
:100040000C9413010C9451000C9411020C94510067
:100050000C94C1010C9451000C9451000C9451006B
:100060000C9451000C94510011241FBECFEFD8E026
:10007000DEBFCDBF12E0A0E0B1E0E8E1FBE202C0EC
:1000800005900D92A433B107D9F727E0A4E3B2E0BD
:1000900001C01D92AD33B207E1F70E94B1020C948A
:1000A0008A150C94000000913B06039500933B06D3
:1000B000E0915006F0915106C191CDBFD191DEBFC4
:1000C0000F910FBFFF91EF91DF91CF91BF91AF9152
:1000D0009F918F917F916F915F914F913F912F9160
:1000E0001F910F91FF90EF90DF90CF90BF90AF9056
:1000F0009F908F907F906F905F904F903F902F9048
:100100001F900F9008950F921F922F923F924F923F
:100110005F926F927F928F929F92AF92BF92CF9297
:10012000DF92EF92FF920F931F932F933F934F9382
:100130005F936F937F938F939F93AF93BF93CF936F
:10014000DF93EF93FF930FB70F93E0915E06F0916B
:100150005F06CDB7C193DEB7D193009140060093FF
:100160004106E0915006F0915106E0935E06F0934F
:100170005F06C191CDBFD191DEBF0F910FBFFF913F
:10018000EF91DF91CF91BF91AF919F918F917F912F
:100190006F915F914F913F912F911F910F91FF9020
:1001A000EF90DF90CF90BF90AF909F908F907F9017
:1001B0006F905F904F903F902F901F900F900895F9
:1001C0000091400600934106E0915006F0915106DF
:1001D000E0935E06F0935F06C191CDBFD191DEBF83
:1001E0000F910FBFFF91EF91DF91CF91BF91AF9131
:1001F0009F918F917F916F915F914F913F912F913F
:100200001F910F91FF90EF90DF90CF90BF90AF9034
:100210009F908F907F906F905F904F903F902F9026
:100220001F900F9008950F921F922F923F924F921E
:100230005F926F927F928F929F92AF92BF92CF9276
:10024000DF92EF92FF920F931F932F933F934F9361
:100250005F936F937F938F939F93AF93BF93CF934E
:10026000DF93EF93FF930FB700680F9300915D0644
:10027000039500935D06013041F4CDB7DEB7E09100
:100280005E06F0915F06C193D19302EB06BD7894B0
:100290000E945A0D00000E94A50A0F910FBFFF9106
:1002A000EF91DF91CF91BF91AF919F918F917F910E
:1002B0006F915F914F913F912F911F910F91FF90FF
:1002C000EF90DF90CF90BF90AF909F908F907F90F6
:1002D0006F905F904F903F902F901F900F900895D8
:1002E000A89508950F921F922F923F924F925F927E
:1002F0006F927F928F929F92AF92BF92CF92DF9236
:10030000EF92FF920F931F932F933F934F935F931F
:100310006F937F938F939F93AF93BF93CF93DF930D
:10032000EF93FF930FB700680F9300915D0603955D
:1003300000935D060E94F4040E94A50A0F910FBF6E
:10034000FF91EF91DF91CF91BF91AF919F918F91ED
:100350007F916F915F914F913F912F911F910F91DD
:10036000FF90EF90DF90CF90BF90AF909F908F90D5
:100370007F906F905F904F903F902F901F900F90C5
:1003800008950F921F922F923F924F925F926F9219
:100390007F928F929F92AF92BF92CF92DF92EF9215
:1003A000FF920F931F932F933F934F935F936F93FE
:1003B0007F938F939F93AF93BF93CF93DF93EF93ED
:1003C000FF930FB700680F9300915D0603950093AC
:1003D0005D060E944B0400000E94A50A0F910FBF0A
:1003E000FF91EF91DF91CF91BF91AF919F918F914D
:1003F0007F916F915F914F913F912F911F910F913D
:10040000FF90EF90DF90CF90BF90AF909F908F9034
:100410007F906F905F904F903F902F901F900F9024
:1004200008950F921F922F923F924F925F926F9278
:100430007F928F929F92AF92BF92CF92DF92EF9274
:10044000FF920F931F932F933F934F935F936F935D
:100450007F938F939F93AF93BF93CF93DF93EF934C
:10046000FF930FB700680F9300915D06039500930B
:100470005D060E94580400000E94A50A0F910FBF5C
:10048000FF91EF91DF91CF91BF91AF919F918F91AC
:100490007F916F915F914F913F912F911F910F919C
:1004A000FF90EF90DF90CF90BF90AF909F908F9094
:1004B0007F906F905F904F903F902F901F900F9084
:1004C00008950F921F922F923F924F925F926F92D8
:1004D0007F928F929F92AF92BF92CF92DF92EF92D4
:1004E000FF920F931F932F933F934F935F936F93BD
:1004F0007F938F939F93AF93BF93CF93DF93EF93AC
:10050000FF930FB700680F9300915D06039500936A
:100510005D060E940D0500000E94A50A0F910FBF05
:10052000FF91EF91DF91CF91BF91AF919F918F910B
:100530007F916F915F914F913F912F911F910F91FB
:10054000FF90EF90DF90CF90BF90AF909F908F90F3
:100550007F906F905F904F903F902F901F900F90E3
:100560000895CF93DF93CDB7DEB70E948A050E942E
:10057000B90980E090E00E940F0E9093750380937C
:10058000740381E090E00E94500F9093F7048093F1
:10059000F60481E090E00E94500F90936A038093EC
:1005A000690380E090E00E940F0E909370038093A7
:1005B0006F0320E049E356E060E070E085EE92E0F2
:1005C0000E945A100E94610BFFCFCF93DF9300D09F
:1005D000CDB7DEB79A8389830E94AC0B28E045E74C
:1005E00054E060E070E081E794E00E945A102AE055
:1005F00049EF55E060E070E086E193E00E945A1018
:100600002CE045EF54E060E070E086EE93E00E945D
:100610005A10109244061092450610924606109207
:10062000470688EC90E00E94EA10F3CFCF93DF9367
:10063000CDB7DEB72E970FB6F894DEBF0FBECDBF95
:100640009E878D8780E090E0A0E8BFE389839A834E
:10065000AB83BC8384E190E09E838D8328EC30E003
:100660008D819E81A901481B590BCA0198878F83F0
:1006700081E090E09A87898780916B0390916C0369
:100680000E94E20D9C878B878B859C859A87898742
:1006900089859A8582309105F1F08330910591F139
:1006A0008130910509F045C080E090E0A0E8BFE30B
:1006B00089839A83AB83BC8384E190E09E838D839E
:1006C00028EC30E08D819E81F901E81BF90BCF0108
:1006D00098878F832EC08DEC9CECACECBEE38983B5
:1006E0009A83AB83BC8384E690E09E838D8328EC61
:1006F00030E08D819E81A901481B590BCA01988762
:100700008F8317C08AE999E9A9E1B0E489839A83C4
:10071000AB83BC8384E690E09E838D8328EC30E03D
:100720008D819E81F901E81BF90BCF0198878F839A
:10073000000085E290E025E230E0F90120812062AE
:10074000FC0120838D819E81CC01A0E0B0E0BC0142
:10075000CD010E94D211DC01CB0129813A814B816C
:100760005C81BC01CD010E943E11DC01CB01BC01CA
:10077000CD010E94A611DC01CB010E94EA1085E2A6
:1007800090E025E230E0F90120812F7DFC012083FB
:100790008F819885CC01A0E0B0E0BC01CD010E9422
:1007A000D211DC01CB0129813A814B815C81BC01F2
:1007B000CD010E943E11DC01CB01BC01CD010E94A4
:1007C000A611DC01CB010E94EA1056CFCF93DF9334
:1007D000CDB7DEB72A970FB6F894DEBF0FBECDBFF8
:1007E0009A878987198280917403909175039E017D
:1007F000285F3F4FA90160E070E00E944D0E9B838F
:100800008A838885882F90E0009709F043C08A8109
:100810009B819D838C838C819D810E94B0129F83DC
:100820008E8381EC90E021EC30E0F901208120649E
:10083000FC01208319821CC086EC90E02981222FC4
:1008400030E04C815D81240F351FF9012081FC01CE
:1008500020838091F6049091F7049E01285F3F4F1A
:10086000A90160E070E00E948E0F89818F5F89830B
:100870008981282F30E08E819F8128173907E0F287
:1008800081EC90E021EC30E0F90120812F7BFC012C
:1008900020830000A8CFCF93DF93CDB7DEB7809140
:1008A000F6049091F7040E941710DF91CF910895FC
:1008B000CF93DF931F92CDB7DEB786EC90E0FC01BB
:1008C000808189838981882F90E09C0180916D03CC
:1008D00090916E03B9010E940F0F0F90DF91CF919D
:1008E0000895CF93DF93CDB7DEB72C970FB6F8946A
:1008F000DEBF0FBECDBF98878F8384E690E09093D4
:10090000F9048093F8042091F8043091F90488ECFC
:1009100090E0B9010E946012CB019A838983809193
:100920006F0390917003AE014A5F5F4F29813A8156
:10093000B9010E944D0E9C838B838E81882F90E09D
:10094000009721F08A30910509F1E9CF8B819C81D4
:100950008D838D81882F90E08237910531F0883723
:10096000910581F41A82198210C02091F804309107
:10097000F90488EC90E0B9010E946012CB019A83DF
:10098000898303C01A82198200002DC085E290E09D
:1009900025E230E0F90120812061FC012083F894F8
:1009A00089E690E023E0FC01208382EB90E020EEDA
:1009B000FC01208384E690E024E630E0F901208108
:1009C0002F7BFC012083789410927103809169033E
:1009D00090916A03AE014A5F5F4F29813A81B90164
:1009E0000E948E0F00009BCFCF93DF93CDB7DEB771
:1009F00085E290E025E230E0F90120812F7EFC01C4
:100A0000208384E690E024E630E0F9012081206430
:100A1000FC012083DF91CF910895CF93DF93CDB771
:100A2000DEB7A4970FB6F894DEBF0FBECDBF80919E
:100A30007103882F90E0009721F08130910579F0C3
:100A40005DC084E890E0FC011182108289E690E0AC
:100A500022E0FC01208381E08093710352C084E88E
:100A600090E0FC01808191819093730380937203E5
:100A700080917203909173039C01A9E0BCE80E94ED
:100A800096120024880F991F001C880F991F001CC4
:100A9000892F902D9093730380937203809172033A
:100AA00090917303292F2F938F9387E291E0892FE1
:100AB0008F9387E291E08F93CE010196892F8F93D8
:100AC000CE0101968F930E94B9120F900F900F9054
:100AD0000F900F900F9080917403909175039E0179
:100AE0002F5F3F4FB9010E940F0F10927103809149
:100AF000690390916A030E94171003C0109271035A
:100B00000000A4960FB6F894DEBF0FBECDBFDF91F4
:100B1000CF910895CF93DF93CDB7DEB7F8940E94BD
:100B2000700188E10FB6F894809360001092600025
:100B30000FBE85E290E025E230E0F90120812F7DB3
:100B4000FC01208385E290E025E230E0F90120817C
:100B50002F7EFC01208385E290E025E230E0F90160
:100B600020812E7FFC01208384E290E024E230E0AB
:100B7000F90120812062FC01208384E290E024E2DC
:100B800030E0F90120812061FC01208384E290E0C3
:100B900024E230E0F90120812160FC0120838BE216
:100BA00090E02BE230E0F90120812B7FFC012083D3
:100BB0008AE290E02AE230E0F90120812B7FFC01FB
:100BC000208389E690E023E0FC0120838CE390E021
:100BD00021E0FC0120838DE390E021E0FC012083F3
:100BE00084E490E023E0FC01208385E490E02DE0A4
:100BF000FC01208387E490E02DE4FC0120838EE655
:100C000090E02EE630E0F90120812160FC01208394
:100C100084E690E024E630E0F90120812F7DFC019C
:100C2000208380E890E0FC01108281E890E022E0DF
:100C3000FC01208382E890E0FC01108286E390E0D2
:100C400026E330E0F90120812762FC01208384E65D
:100C500090E024E630E0F9012081277FFC01208329
:100C600080EB90E0FC01108281EB90E022E0FC013F
:100C7000208387E390E027E330E0F90120812160C1
:100C8000FC01208380E790E020E730E0F90120813B
:100C90002160FC01208384E690E024E630E0F90145
:100CA00020812064FC01208385EC90E0FC0110820F
:100CB00084EC90E029E1FC01208381EC90E028E1C4
:100CC000FC01208382EC90E027E0FC0120837894F3
:100CD000DF91CF910895CF93DF93CDB7DEB72C97F7
:100CE0000FB6F894DEBF0FBECDBF9E838D8378878D
:100CF0006F835A8749873C872B8789859A859A8392
:100D000089838D819E819C838B8389819A819C01BB
:100D1000215031093A8329832B81FC012083898169
:100D20009A819C01215031093A8329832B813C818E
:100D3000232F3327FC01208389819A819C01215034
:100D400031093A832983FC01108289819A819C01AF
:100D5000215031093A832983FC01108289819A81CB
:100D60009C01215031093A832983FC011082898139
:100D70009A819C01215031093A832983FC01108218
:100D800089819A819C01215031093A832983FC0190
:100D9000108289819A819C01215031093A832983EB
:100DA000FC01108289819A819C01215031093A838A
:100DB0002983FC01108289819A819C01215031098B
:100DC0003A832983FC01108289819A819C012150F8
:100DD00031093A832983FC01108289819A819C011F
:100DE000215031093A832983FC01108289819A813B
:100DF0009C01215031093A832983FC0110828981A9
:100E00009A819C01215031093A832983FC01108287
:100E100089819A819C01215031093A832983FC01FF
:100E2000108289819A819C01215031093A8329835A
:100E3000FC01108289819A819C01215031093A83F9
:100E40002983FC01108289819A819C0121503109FA
:100E50003A832983FC01108289819A819C01215067
:100E600031093A832983FC01108289819A819C018E
:100E7000215031093A832983FC01108289819A81AA
:100E80009C01215031093A832983FC011082898118
:100E90009A819C01215031093A832983FC011082F7
:100EA00089819A819C01215031093A832983FC016F
:100EB000108289819A819C01215031093A832983CA
:100EC000FC01108289819A819C01215031093A8369
:100ED0002983FC01108289819A819C01215031096A
:100EE0003A832983FC0110828F8198859C838B83B0
:100EF00089819A819C01215031093A8329832B8170
:100F0000FC01208389819A819C01215031093A8317
:100F100029832B813C81232F3327FC012083898166
:100F20009A819C01215031093A832983FC01108266
:100F300089819A819C01215031093A832983FC01DE
:100F4000108289819A819C01215031093A83298339
:100F5000FC01108289819A819C01215031093A83D8
:100F60002983FC01108289819A819C0121503109D9
:100F70003A832983FC01108289819A819C01215046
:100F800031093A832983FC01108289819A819C016D
:100F9000215031093A83298320E8FC01208389818B
:100FA0009A812C960FB6F894DEBF0FBECDBFDF91AD
:100FB000CF910895CF93DF9300D0CDB7DEB79A835A
:100FC00089830F900F90DF91CF910895CF93DF9396
:100FD000CDB7DEB7DF91CF910895CF93DF93CDB733
:100FE000DEB7DF91CF910895CF93DF93CDB7DEB712
:100FF0002C970FB6F894DEBF0FBECDBF99878887B8
:101000007B876A874C8788859985FC018585882F31
:1010100090E08C5C9E4FFC01808189838981882FC0
:1010200090E0845D9E4FFC0180818A838981882FB6
:1010300090E028853985820F931F0296FC018081FC
:10104000882F90E08C5C9E4FFC0180818B838B818C
:10105000882F90E0845D9E4FFC0180818C83898184
:10106000982F990F990F990F8B81890F8D83898103
:10107000882F90E02981222F30E048855985240F60
:10108000351F2E5F3F4FF9012081322F2C81209593
:101090002323422F28853985280F391F2E5F3F4F84
:1010A000F901408328853985820F931F0296FC0140
:1010B0008081882369F488859985FC018585982F2E
:1010C0008A8180958923282F88859985FC01258729
:1010D0008D81882F90E0880F991F8754994FFC01CC
:1010E000808191819F838E838E819F81FC011386F5
:1010F00012868E819F81FC01178216828E819F81CC
:101100002A853B85FC01318720878E819F81FC01E8
:101110008485982F8C8580958923282F8E819F81A7
:10112000FC0124878E819F81FC0184858823B1F492
:10113000909152068A81892B809352068981882F4B
:1011400090E02981222F30E02D5A394FF90130816A
:101150002C81232B8D5A994FFC0120832C960FB69E
:10116000F894DEBF0FBECDBFDF91CF910895CF932E
:10117000DF9300D0CDB7DEB79A83898380915E0676
:1011800090915F0629813A81FC0137832683809103
:101190005E0690915F06FC018785882F90E0209184
:1011A0005E0630915F06F9012785222F30E02D5A27
:1011B000394FF9012081422F20915E0630915F0660
:1011C000F901208920952423422F9C012D5A394F63
:1011D000F90140838D5A994FFC018081882369F47D
:1011E00080915E0690915F06FC018189982F909511
:1011F0008091520689238093520680915E069091D9
:101200005F06FC018785882F90E020915E06309173
:101210005F06F9012785222F30E049815A81240F8A
:10122000351F2E5F3F4FF901408120915E063091BE
:101230005F06F9012089422B29813A81820F931F91
:101240000296FC01408389819A81FC012585809169
:101250005E0690915F06FC018189282B89819A8125
:10126000FC0125870F900F90DF91CF910895CF93C8
:10127000DF9300D0CDB7DEB79A83898380915E0675
:1012800090915F06FC018785882F90E020915E0693
:1012900030915F06F9012785222F30E049815A817C
:1012A000240F351F2E5F3F4FF9012081422F2091DF
:1012B0005E0630915F06F901208920952423422F94
:1012C00029813A81280F391F2E5F3F4FF901408352
:1012D00029813A81820F931F0296FC018081882325
:1012E00091F489819A81FC018585282F80915E0681
:1012F00090915F06FC01818980958223282F898146
:101300009A81FC01258780915E0690915F06FC0121
:10131000148680915E0690915F06FC01178216820A
:101320000F900F90DF91CF910895CF93DF9300D06E
:101330001F92CDB7DEB79B838A838A819B81FC0194
:10134000158619820DC08981882F90E02A813B8102
:10135000820F931F0296FC01108289818F5F89831F
:101360008981883080F30F900F900F90DF91CF919B
:101370000895CF93DF9300D0CDB7DEB7109260060B
:1013800010926106109262061092630610925D063A
:1013900010923A0610924F0610923B0610923C06AD
:1013A00010923D0610923E0610923F06109244069F
:1013B0001092450610924606109247061092520669
:1013C0001A8219820BC089819A818D5A994FFC012A
:1013D000108289819A8101969A83898389819A8171
:1013E0008830910580F310924106109240061092C9
:1013F00051061092500610925F0610925E061092EF
:101400004306109242061A8219820EC089819A817F
:10141000880F991F8754994FFC011182108289818E
:101420009A8101969A83898389819A818034910572
:1014300068F31A82198228C089819A810196880FDF
:10144000991F9C01220F331F220F331F220F331FBE
:10145000820F931F9C012B543D4F89819A81880FE5
:10146000991FAC01440F551F440F551F440F551FC2
:10147000840F951F89549D4FFC01318320838981FE
:101480009A8101969A83898389819A81893091050D
:1014900098F210925A031092590385EB92E09093C0
:1014A0004D0680934C061A82198229C089819A813F
:1014B0000196880F991F9C01220F331F220F331FA3
:1014C000220F331F281B390BA9014C59594F898111
:1014D0009A81880F991F9C01220F331F220F331FFF
:1014E000220F331F281B390BC9018C59994FFC015E
:1014F0005183408389819A8101969A838983898166
:101500009A818530910590F21092AB061092AA064E
:1015100084E696E090935C0680935B062FE344E7B5
:1015200052E060E070E08AED9BE00E945A102EE3EA
:1015300044EB52E060E070E087EF9BE00E945A10BD
:101540000F900F90DF91CF910895CF93DF93CDB798
:10155000DEB7F89480915D06815080935D0690918E
:101560005D0680913A06892B882309F04BC0809153
:101570005206882F90E08C5C9E4FFC018081809306
:10158000340280913402282F220F220F220F8091E3
:101590003402882F90E08D5A994FFC018081882F6A
:1015A00090E08C5C9E4FFC018081820F809340060E
:1015B0009091400680914106981721F18091400654
:1015C000882F90E0880F991F8754994FFC018081E4
:1015D000918190935106809350068091440690919A
:1015E0004506A0914606B09147060196A11DB11D82
:1015F0008093440690934506A0934606B093470611
:101600000E94E0007894DF91CF910895CF93DF930B
:101610001F92CDB7DEB7F89490913A0680915D069F
:10162000892B882309F048C080915206882F90E0CA
:101630008C5C9E4FFC01808189838981282F220F39
:10164000220F220F8981882F90E08D5A994FFC013B
:101650008081882F90E08C5C9E4FFC018081820FFE
:10166000809340069091400680914106981721F1A1
:1016700080914006882F90E0880F991F8754994FDA
:10168000FC01808191819093510680935006809156
:10169000440690914506A0914606B09147060196F2
:1016A000A11DB11D8093440690934506A093460664
:1016B000B09347060E94830078940F90DF91CF91FA
:1016C0000895CF93DF9300D0CDB7DEB780913B066E
:1016D0008823D9F580915206882F90E08C5C9E4F2C
:1016E000FC01808189838981882F90E08D5A994FF0
:1016F000FC018081882F90E08C5C9E4FFC018081F2
:101700008A838981982F990F990F990F8A81890F60
:101710008093400680914006809341068091400668
:10172000882F90E0880F991F8754994FFC01808182
:10173000918190935106809350068091500690912C
:10174000510690935F0680935E060E9453000F90AF
:101750000F90DF91CF910895CF93DF93CDB7DEB790
:1017600082E090E00E94EA10F89410923C061092F9
:101770003D0610923E0610923F06789488EC90E069
:101780000E94EA10F89480913C0690913D06A09149
:101790003E06B0913F068093480690934906A09379
:1017A0004A06B0934B0681E08093B8067894DF91A7
:1017B000CF910895CF93DF9300D0CDB7DEB79A8352
:1017C0008983F89480913C0690913D06A0913E0655
:1017D000B0913F060196A11DB11D80933C069093E8
:1017E0003D06A0933E06B0933F067894EACFCF9390
:1017F000DF93CDB7DEB72B970FB6F894DEBF0FBEE1
:10180000CDBF9F838E8304C080E991E00E94EA10DF
:101810008091B8068823C1F3F89480913C0690919A
:101820003D06A0913E06B0913F0680933907909304
:101830003A07A0933B07B0933C0780913C069091F8
:101840003D06A0913E06B0913F0689839A83AB8303
:10185000BC8310923C0610923D0610923E061092F8
:101860003F0678948091480690914906A0914A06D7
:10187000B0914B060097A105B10579F129813A8114
:101880004B815C8184E690E0DC010E94A512DC01C2
:10189000CB01209148063091490640914A0650916B
:1018A0004B06BC01CD010E947412DA01C90194E615
:1018B000292F281B822F8D838D81853624F084E685
:1018C00080934E060CC08D8188231CF410924E0626
:1018D00006C08D8180934E0602C010924E060E9473
:1018E000E60788EC90E00E94EA1096CFCF92DF9254
:1018F000EF92FF920F931F93CF93DF93CDB7DEB795
:101900002F970FB6F894DEBF0FBECDBF8B837D83BC
:101910006C835F834E83398728871B870A87FD8600
:10192000EC86DF86CE86F89480914C0690914D0629
:101930009A83898389819A81009709F4AAC0898151
:101940009A81FC018281938190934D0680934C068D
:10195000789489819A812C813D81FC013183208397
:1019600089819A812B81FC01258789819A81FC01DB
:10197000148689819A81FC01138612868B81282F17
:1019800026952695269589819A81FC01278789814C
:101990009A81FC018785882F90E0845D9E4FFC0131
:1019A000208189819A81FC01218B8B81282F2770CE
:1019B00089819A81FC01268789819A81FC0186852B
:1019C000882F90E0845D9E4FFC01208189819A815F
:1019D000FC01208B89819A81FC0117821682898102
:1019E0009A81FC0111861086F8948B81882F90E0F3
:1019F000880F991F8754994F29813A81FC013183BF
:101A00002083209142063091430689819A81FC010E
:101A10003383228389819A81FC011582148280910B
:101A2000420690914306009749F0809142069091BA
:101A3000430629813A81FC013583248389819A8177
:101A4000909343068093420689819A81FC01918993
:101A500080915206892B8093520689819A81FC01DC
:101A60008785882F90E029813A81F9012785222FE7
:101A700030E02D5A394FF901408129813A81F9012D
:101A80002089242B8D5A994FFC012083789480E083
:101A900002C0789486E42F960FB6F894DEBF0FBE8E
:101AA000CDBFDF91CF911F910F91FF90EF90DF900D
:101AB000CF900895CF93DF9300D0CDB7DEB70E94CB
:101AC000ED0780914206909143069A83898359C01D
:101AD000F89489819A81FC0182859385009709F4A5
:101AE00048C089819A81FC01828593859C0121509F
:101AF000310989819A81FC013387228789819A8102
:101B0000FC01828593850097A1F589819A81FC016A
:101B10008485882F90E088709927009719F589812E
:101B20009A81FC01918980915206892B80935206FB
:101B300089819A81FC018785882F90E029813A81EB
:101B4000F9012785222F30E02D5A394FF9014081C4
:101B500029813A81F9012089242B8D5A994FFC0162
:101B6000208307C089819A8121E030E0FC0133871E
:101B7000228789819A81FC01828193819A8389835A
:101B8000789489819A81FC0185858F3309F0A0CFF3
:101B9000F8948091600690916106A0916206B091E0
:101BA00063060196A11DB11D8093600690936106A6
:101BB000A0936206B093630678940F900F90DF9124
:101BC000CF910895CF93DF9300D000D0CDB7DEB78B
:101BD0009C838B83F8948B819C81FC01848581306C
:101BE00021F0789480E090E013C08B819C81FC010F
:101BF000808191819A83898389819A81009729F0D4
:101C00008B819C81FC0111821082789489819A8158
:101C10000F900F900F900F90DF91CF910895CF9379
:101C2000DF9300D000D0CDB7DEB79C838B83F894D0
:101C300080915B0690915C069A83898380915B0614
:101C400090915C06009759F080915B0690915C063C
:101C5000FC018081918190935C0680935B0678946F
:101C600089819A81009781F089819A8121E0FC0124
:101C7000248789819A812B813C81FC0131832083D7
:101C800089819A810E94950989819A810F900F908C
:101C90000F900F90DF91CF910895CF93DF93CDB741
:101CA000DEB728970FB6F894DEBF0FBECDBF9C837A
:101CB0008B837E836D8358874F83F8948B819C81BF
:101CC000FC018485813049F078948F81988521E0EA
:101CD000FC01208380E090E099C08B819C81FC0115
:101CE000808191819A83898389819A81009759F0B3
:101CF0008B819C81FC011182108278948F81988560
:101D0000FC01108281C080915D06882339F07894AF
:101D10008F81988522E0FC01208376C080915E0649
:101D200090915F0620915E0630915F06F90124854F
:101D30002260FC01248780915E0690915F062D81D0
:101D40003E81FC01338722878B819C810E94B708EA
:101D500078940E94060BF89480915E0690915F063D
:101D6000FC01808591859A83898389819A81009776
:101D7000D1F080915E0690915F06FC01118610867D
:101D800080915E0690915F06FC01148680915E064C
:101D900090915F06FC011782168278948F81988556
:101DA000FC01108231C080915E0690915F06FC01BB
:101DB0008485882F90E082709927009769F08B8145
:101DC0009C810E94370978941A8219828F819885A4
:101DD0002AE0FC01208318C08B819C81FC0180815A
:101DE00091819A8389838B819C81FC01118210826D
:101DF00080915E0690915F06FC01178216827894AE
:101E00008F819885FC01108289819A8128960FB66E
:101E1000F894DEBF0FBECDBFDF91CF910895CF9371
:101E2000DF9300D000D0CDB7DEB79A8389837C835F
:101E30006B83F89489819A81FC018485813019F043
:101E4000789481E026C089819A81FC018585882368
:101E500069F02B813C8189819A8142E0B9010E941D
:101E6000F40778940E94060B80E013C089819A8160
:101E7000FC0180819181009719F0789484E109C078
:101E800089819A812B813C81FC0131832083789464
:101E900080E00F900F900F900F90DF91CF910895F9
:101EA000CF93DF9300D000D0CDB7DEB79C838B8378
:101EB000F89480915B0690915C069A838983809167
:101EC0005B0690915C06009759F080915B069091BB
:101ED0005C06FC018081918190935C0680935B0697
:101EE000789489819A81009781F089819A8123E091
:101EF000FC01248789819A812B813C81FC013387F5
:101F0000228789819A810E94950989819A810F90FF
:101F10000F900F900F90DF91CF910895CF93DF93A3
:101F200000D000D000D0CDB7DEB79A8389837C8300
:101F30006B835E834D83F89489819A81FC0184854B
:101F4000833031F078948D819E8121E0FC012083E3
:101F500089819A81FC0182859385009799F0898116
:101F60009A81FC01828593859C01215031098981E8
:101F70009A81FC013387228778948D819E81FC01B0
:101F800010824CC080915D06882339F078948D8151
:101F90009E8122E0FC01208341C080915E069091E9
:101FA0005F0620915E0630915F06F901248521606D
:101FB000FC01248780915E0690915F062B813C8115
:101FC000FC013387228789819A810E94B70878941F
:101FD0000E94060BF89480915E0690915F06FC01CA
:101FE0008485882F90E081709927009759F0898126
:101FF0009A810E94370978948D819E812AE0FC01A4
:1020000020830CC080915E0690915F06FC011782D0
:10201000168278948D819E81FC01108226960FB6DF
:10202000F894DEBF0FBECDBFDF91CF910895CF935F
:10203000DF9300D0CDB7DEB79A838983F894898186
:102040009A81FC018485833019F0789481E02DC059
:1020500089819A81FC018585882361F089819A8133
:1020600041E060E070E00E94F40778940E94060B63
:1020700080E01BC089819A81FC01828593858F3F16
:10208000FFEF9F0781F089819A81FC01828593850A
:102090009C012F5F3F4F89819A81FC013387228702
:1020A000789480E002C0789482E30F900F90DF91E3
:1020B000CF910895CF92DF92EF92FF920F931F93EB
:1020C000CF93DF93CDB7DEB72A970FB6F894DEBF74
:1020D0000FBECDBF9D838C837F836E8359874887D6
:1020E0002A878A85803410F08AE265C0F8948A8550
:1020F000882F90E0880F991F8754994FFC018081A9
:102100009181009709F055C08A85882F90E0880F4B
:10211000991F8754994F21E030E0FC0131832083DF
:102120007894488559856E817F818C819D8120E0DE
:1021300030E00E946B069A83898389819A81C12C41
:10214000D12CE12CF12C00E010E020E030E040E068
:1021500050E0BC018A850E94760C8B838B8188239A
:10216000D1F4F89480914F068F5F80934F068A8553
:10217000882F90E0880F991F8754994FFC01808128
:1021800091810E94DA07789480913B06882379F048
:102190000E94060B0CC0F8948A85882F90E0880F67
:1021A000991F8754994FFC011182108278948B817A
:1021B00002C0789488E22A960FB6F894DEBF0FBE6C
:1021C000CDBFDF91CF911F910F91FF90EF90DF90E6
:1021D000CF900895CF93DF9300D0CDB7DEB79A8329
:1021E000898389819A81009709F443C0F89480918A
:1021F0005E0690915F06FC018785882F90E0209114
:102200005E0630915F06F9012785222F30E02D5AB6
:10221000394FF9012081422F20915E0630915F06EF
:10222000F901208920952423422F9C012D5A394FF2
:10223000F90140838D5A994FFC018081882369F40C
:1022400080915E0690915F06FC018189982F9095A0
:102250008091520689238093520680915E06909168
:102260005F0629813A81FC013387228778940E9496
:10227000060B0F900F90DF91CF9108950CD0E6C020
:10228000DED040F0D5D030F021F45F3F19F0C7C068
:10229000511110C1CAC0EBD098F39923C9F355234B
:1022A000B1F3951B550BBB27AA2762177307840749
:1022B00038F09F5F5F4F220F331F441FAA1FA9F3FF
:1022C00033D00E2E3AF0E0E830D091505040E695F1
:1022D000001CCAF729D0FE2F27D0660F771F881F52
:1022E000BB1F261737074807AB07B0E809F0BB0B41
:1022F000802DBF01FF2793585F4F2AF09E3F510565
:1023000068F08DC0D7C05F3FECF3983EDCF3869554
:1023100077956795B795F7959F5FC9F7880F911DDA
:102320009695879597F90895E1E0660F771F881FC6
:10233000BB1F621773078407BA0720F0621B730B79
:10234000840BBA0BEE1F88F7E095089598D088F0BB
:102350009F5790F0B92F9927B751A0F0D1F0660F91
:10236000771F881F991F1AF0BA95C9F712C0B130AC
:1023700081F09FD0B1E008959CC0672F782F882707
:10238000B85F39F0B93FCCF3869577956795B395EB
:10239000D9F73EF490958095709561957F4F8F4F5A
:1023A0009F4F0895E89409C097FB3EF4909580955F
:1023B000709561957F4F8F4F9F4F9923A9F0F92F0B
:1023C00096E9BB279395F695879577956795B79589
:1023D000F111F8CFFAF4BB0F11F460FF1BC06F5F6F
:1023E0007F4F8F4F9F4F16C0882311F096E911C081
:1023F000772321F09EE8872F762F05C0662371F0A2
:1024000096E8862F70E060E02AF09A95660F771FB5
:10241000881FDAF7880F9695879597F9089597F9A9
:102420009F6780E870E060E008959FEF80EC08957A
:1024300000240A94161617061806090608950024A3
:102440000A9412161306140605060895092E03941D
:10245000000C11F4882352F0BB0F40F4BF2B11F491
:1024600060FF04C06F5F7F4F8F4F9F4F089557FDF0
:102470009058440F551F59F05F3F71F04795880FF2
:1024800097FB991F61F09F3F79F087950895121689
:1024900013061406551FF2CF4695F1DF08C0161635
:1024A00017061806991FF1CF8695710561050894E6
:1024B0000895E894BB2766277727CB0197F90895FD
:1024C000AA1BBB1B51E107C0AA1FBB1FA617B7075A
:1024D00010F0A61BB70B881F991F5A95A9F7809576
:1024E0009095BC01CD010895A1E21A2EAA1BBB1B39
:1024F000FD010DC0AA1FBB1FEE1FFF1FA217B307D0
:10250000E407F50720F0A21BB30BE40BF50B661FE5
:10251000771F881F991F1A9469F7609570958095A9
:1025200090959B01AC01BD01CF010895A29FB00120
:10253000B39FC001A39F700D811D1124911DB29FF7
:10254000700D811D1124911D08950E949612A59F62
:10255000900DB49F900DA49F800D911D112408959E
:10256000FC0101900020E9F7809590958E0F9F1F48
:102570000895AEE0B0E0EFEBF2E10C9461150D8947
:102580001E8986E08C831A8309838FEF9FE79E83E1
:102590008D83AE01475E5F4F6F89788DCE010196C6
:1025A0000E94DB12EF81F885E00FF11F10822E965A
:1025B000E4E00C947D15ACE0B0E0E1EEF2E10C94C7
:1025C00053157C016B018A01FC01178216828381FD
:1025D00081FFBDC1CE0101964C01F7019381F60147
:1025E00093FD859193FF81916F01882309F4ABC11D
:1025F000853239F493FD859193FF81916F01853286
:1026000029F4B70190E00E94C314E7CF512C312C7C
:1026100020E02032A0F48B3269F030F4803259F09F
:10262000833269F420612CC08D3239F0803339F463
:10263000216026C02260246023C0286021C027FDBD
:1026400027C030ED380F3A3078F426FF06C0FAE0A4
:102650005F9E300D1124532E13C08AE0389E300D3A
:102660001124332E20620CC08E3221F426FD6BC162
:10267000206406C08C3611F4206802C0883641F40C
:10268000F60193FD859193FF81916F018111C1CF77
:10269000982F9F7D9554933028F40C5F1F4FFFE3D4
:1026A000F9830DC0833631F0833771F0833509F03B
:1026B0005BC022C0F801808189830E5F1F4F4424D4
:1026C0004394512C540115C03801F2E06F0E711C77
:1026D000F801A080B18026FF03C0652D70E002C024
:1026E0006FEF7FEFC5012C870E94B8142C01830186
:1026F0002C852F77222E17C03801F2E06F0E711C47
:10270000F801A080B18026FF03C0652D70E002C0F3
:102710006FEF7FEFC5012C870E94AD142C012C8533
:102720002068222E830123FC1BC0832D90E04816D5
:102730005906B0F4B70180E290E00E94C3143A94C5
:10274000F4CFF50127FC859127FE81915F01B70148
:1027500090E00E94C31431103A94F1E04F1A5108EE
:102760004114510471F7E5C0843611F0893639F50A
:10277000F80127FF07C060817181828193810C5F1E
:102780001F4F08C060817181882777FD8095982F41
:102790000E5F1F4F2F76B22E97FF09C09095809540
:1027A000709561957F4F8F4F9F4F2068B22E2AE022
:1027B00030E0A4010E94F514A82EA81844C0853763
:1027C00029F42F7EB22E2AE030E025C0F22FF97FC7
:1027D000BF2E8F36C1F018F4883579F0B4C0803739
:1027E00019F0883721F0AFC02F2F2061B22EB4FE30
:1027F0000DC08B2D8460B82E09C024FF0AC09F2F06
:102800009660B92E06C028E030E005C020E130E037
:1028100002C020E132E0F801B7FE07C0608171819B
:10282000828193810C5F1F4F06C06081718180E0BF
:1028300090E00E5F1F4FA4010E94F514A82EA81867
:10284000FB2DFF77BF2EB6FE0BC02B2D2E7FA514C0
:1028500050F4B4FE0AC0B2FC08C02B2D2E7E05C079
:102860007A2C2B2D03C07A2C01C0752C24FF0DC0AF
:10287000FE01EA0DF11D8081803311F4297E09C02B
:1028800022FF06C07394739404C0822F867809F0E7
:10289000739423FD13C020FF06C05A2C731418F440
:1028A000530C5718732C731468F4B70180E290E04E
:1028B0002C870E94C31473942C85F5CF731410F4E5
:1028C000371801C0312C24FF12C0B70180E390E01B
:1028D0002C870E94C3142C8522FF17C021FF03C040
:1028E00088E590E002C088E790E0B7010CC0822F35
:1028F000867859F021FD02C080E201C08BE227FDFD
:102900008DE2B70190E00E94C314A51438F4B7011A
:1029100080E390E00E94C3145A94F7CFAA94F40184
:10292000EA0DF11D8081B70190E00E94C314A1104F
:10293000F5CF332009F451CEB70180E290E00E9438
:10294000C3143A94F6CFF7018681978102C08FEFC6
:102950009FEF2C96E2E10C946F15FC0105906150FD
:1029600070400110D8F7809590958E0F9F1F0895A5
:10297000FC016150704001900110D8F7809590954E
:102980008E0F9F1F08950F931F93CF93DF93182FE0
:10299000092FEB018B8181FD03C08FEF9FEF20C0DA
:1029A00082FF10C04E815F812C813D814217530709
:1029B0007CF4E881F9819F012F5F3F4F39832883A1
:1029C000108306C0E885F985812F0995892B29F7A1
:1029D0002E813F812F5F3F4F3F832E83812F902F8A
:1029E000DF91CF911F910F910895FA01AA27283006
:1029F00051F1203181F1E8946F936E7F6E5F7F4FCC
:102A00008F4F9F4FAF4FB1E03ED0B4E03CD0670F47
:102A1000781F891F9A1FA11D680F791F8A1F911D9A
:102A2000A11D6A0F711D811D911DA11D20D009F4EA
:102A300068943F912AE0269F11243019305D31932C
:102A4000DEF6CF010895462F4770405D4193B3E015
:102A50000FD0C9F7F6CF462F4F70405D4A3318F0BC
:102A6000495D31FD4052419302D0A9F7EACFB4E06D
:102A7000A6959795879577956795BA95C9F7009725
:102A80006105710508959B01AC010A2E06945795C6
:102A9000479537952795BA95C9F7620F731F841F1D
:102AA000951FA01D08952F923F924F925F926F92B3
:102AB0007F928F929F92AF92BF92CF92DF92EF92CE
:102AC000FF920F931F93CF93DF93CDB7DEB7CA1B4F
:102AD000DB0B0FB6F894DEBF0FBECDBF09942A887A
:102AE000398848885F846E847D848C849B84AA8422
:102AF000B984C884DF80EE80FD800C811B81AA81AF
:102B0000B981CE0FD11D0FB6F894DEBF0FBECDBF79
:082B1000ED010895F894FFCFD8
:102B18004E6F206572726F720A0D004D656469759B
:102B28006D204572726F720A0D004849474820456A
:102B380072726F720A0D0025750A0D0001020408F1
:102B48001020408000000100020001000300010085
:102B5800020001000400010002000100030001005E
:102B6800020001000500010002000100030001004D
:102B7800020001000400010002000100030001003E
:102B8800020001000600010002000100030001002C
:102B9800020001000400010002000100030001001E
:102BA800020001000500010002000100030001000D
:102BB80002000100040001000200010003000100FE
:102BC80002000100070001000200010003000100EB
:102BD80002000100040001000200010003000100DE
:102BE80002000100050001000200010003000100CD
:102BF80002000100040001000200010003000100BE
:102C080002000100060001000200010003000100AB
:102C1800020001000400010002000100030001009D
:102C2800020001000500010002000100030001008C
:102C3800020001000400010002000100030001007D
:042C48000200010085
:00000001FF
