:100000000C9434000C9461020C9451000C94510037
:100010000C9451000C9451000C9451000C9451001C
:100020000C9451000C9472010C9451000C945100EA
:100030000C9451000C9451000C9451000C945100FC
:100040000C9413010C9451000C9411020C94510067
:100050000C94C1010C9451000C9451000C9451006B
:100060000C9451000C94510011241FBECFEFD8E026
:10007000DEBFCDBF12E0A0E0B1E0E8ECF6E202C0E6
:1000800005900D92A433B107D9F727E0A4E3B2E0BD
:1000900001C01D92A134B207E1F70E94B1020C9495
:1000A00062130C94000000913F06039500933F06F5
:1000B000E0915406F0915506C191CDBFD191DEBFBC
:1000C0000F910FBFFF91EF91DF91CF91BF91AF9152
:1000D0009F918F917F916F915F914F913F912F9160
:1000E0001F910F91FF90EF90DF90CF90BF90AF9056
:1000F0009F908F907F906F905F904F903F902F9048
:100100001F900F9008950F921F922F923F924F923F
:100110005F926F927F928F929F92AF92BF92CF9297
:10012000DF92EF92FF920F931F932F933F934F9382
:100130005F936F937F938F939F93AF93BF93CF936F
:10014000DF93EF93FF930FB70F93E0916206F09167
:100150006306CDB7C193DEB7D193009144060093F7
:100160004506E0915406F0915506E0936206F0933F
:100170006306C191CDBFD191DEBF0F910FBFFF913B
:10018000EF91DF91CF91BF91AF919F918F917F912F
:100190006F915F914F913F912F911F910F91FF9020
:1001A000EF90DF90CF90BF90AF909F908F907F9017
:1001B0006F905F904F903F902F901F900F900895F9
:1001C0000091440600934506E0915406F0915506CF
:1001D000E0936206F0936306C191CDBFD191DEBF7B
:1001E0000F910FBFFF91EF91DF91CF91BF91AF9131
:1001F0009F918F917F916F915F914F913F912F913F
:100200001F910F91FF90EF90DF90CF90BF90AF9034
:100210009F908F907F906F905F904F903F902F9026
:100220001F900F9008950F921F922F923F924F921E
:100230005F926F927F928F929F92AF92BF92CF9276
:10024000DF92EF92FF920F931F932F933F934F9361
:100250005F936F937F938F939F93AF93BF93CF934E
:10026000DF93EF93FF930FB700680F930091610640
:10027000039500936106013041F4CDB7DEB7E091FC
:100280006206F0916306C193D19302EB06BD7894A8
:100290000E94810C00000E94CC090F910FBFFF91BA
:1002A000EF91DF91CF91BF91AF919F918F917F910E
:1002B0006F915F914F913F912F911F910F91FF90FF
:1002C000EF90DF90CF90BF90AF909F908F907F90F6
:1002D0006F905F904F903F902F901F900F900895D8
:1002E000A89508950F921F922F923F924F925F927E
:1002F0006F927F928F929F92AF92BF92CF92DF9236
:10030000EF92FF920F931F932F933F934F935F931F
:100310006F937F938F939F93AF93BF93CF93DF930D
:10032000EF93FF930FB700680F9300916106039559
:10033000009361060E941B040E94CC090F910FBF1D
:10034000FF91EF91DF91CF91BF91AF919F918F91ED
:100350007F916F915F914F913F912F911F910F91DD
:10036000FF90EF90DF90CF90BF90AF909F908F90D5
:100370007F906F905F904F903F902F901F900F90C5
:1003800008950F921F922F923F924F925F926F9219
:100390007F928F929F92AF92BF92CF92DF92EF9215
:1003A000FF920F931F932F933F934F935F936F93FE
:1003B0007F938F939F93AF93BF93CF93DF93EF93ED
:1003C000FF930FB700680F930091610603950093A8
:1003D00061060E94720300000E94CC090F910FBFBA
:1003E000FF91EF91DF91CF91BF91AF919F918F914D
:1003F0007F916F915F914F913F912F911F910F913D
:10040000FF90EF90DF90CF90BF90AF909F908F9034
:100410007F906F905F904F903F902F901F900F9024
:1004200008950F921F922F923F924F925F926F9278
:100430007F928F929F92AF92BF92CF92DF92EF9274
:10044000FF920F931F932F933F934F935F936F935D
:100450007F938F939F93AF93BF93CF93DF93EF934C
:10046000FF930FB700680F93009161060395009307
:1004700061060E947F0300000E94CC090F910FBF0C
:10048000FF91EF91DF91CF91BF91AF919F918F91AC
:100490007F916F915F914F913F912F911F910F919C
:1004A000FF90EF90DF90CF90BF90AF909F908F9094
:1004B0007F906F905F904F903F902F901F900F9084
:1004C00008950F921F922F923F924F925F926F92D8
:1004D0007F928F929F92AF92BF92CF92DF92EF92D4
:1004E000FF920F931F932F933F934F935F936F93BD
:1004F0007F938F939F93AF93BF93CF93DF93EF93AC
:10050000FF930FB700680F93009161060395009366
:1005100061060E94340400000E94CC090F910FBFB5
:10052000FF91EF91DF91CF91BF91AF919F918F910B
:100530007F916F915F914F913F912F911F910F91FB
:10054000FF90EF90DF90CF90BF90AF909F908F90F3
:100550007F906F905F904F903F902F901F900F90E3
:100560000895CF93DF93CDB7DEB70E94B1040E9408
:10057000E00880E090E00E94090D9093770380935B
:10058000760381E090E00E944A0E9093F9048093F4
:10059000F80481E090E00E944A0E90936A038093F1
:1005A000690380E090E00E94090D909370038093AE
:1005B0006F0320E04BE356E060E070E085EE92E0F0
:1005C0000E94540F0E94880AFFCFCF93DF9300D080
:1005D000CDB7DEB79A8389830E94D30A28E047E724
:1005E00054E060E070E088E993E00E94540F2CE052
:1005F00047EF54E060E070E08DE093E00E94540F1C
:10060000109248061092490610924A0610924B0624
:1006100088EC90E00E94E40FF3CFCF93DF93CDB747
:10062000DEB72A970FB6F894DEBF0FBECDBF9A870C
:100630008987198280917603909177039E01285FC4
:100640003F4FA90160E070E00E94470D9B838A83C1
:100650008885882F90E0009709F043C08A819B81AC
:100660009D838C838C819D810E9488109F838E83C3
:1006700081EC90E021EC30E0F90120812064FC0164
:10068000208319821CC086EC90E02981222F30E063
:100690004C815D81240F351FF9012081FC012083ED
:1006A0008091F8049091F9049E01285F3F4FA901C1
:1006B00060E070E00E94880E89818F5F8983898164
:1006C000282F30E08E819F8128173907E0F281ECD6
:1006D00090E021EC30E0F90120812F7BFC012083A8
:1006E0000000A8CFCF93DF93CDB7DEB78091F80499
:1006F0009091F9040E94110FDF91CF910895CF934B
:10070000DF931F92CDB7DEB786EC90E0FC018081CD
:1007100089838981882F90E09C0180916D0390915D
:100720006E03B9010E94090E0F90DF91CF910895D9
:10073000CF93DF93CDB7DEB72C970FB6F894DEBF1B
:100740000FBECDBF98878F838AE090E09093FB0423
:100750008093FA042091FA043091FB0488EC90E035
:10076000B9010E943810CB019A83898380916F036D
:1007700090917003AE014A5F5F4F29813A81B901C0
:100780000E94470D9C838B838E81882F90E0009779
:1007900021F08A30910509F1E9CF8B819C818D830D
:1007A0008D81882F90E08237910531F0883791054F
:1007B00081F41A82198210C02091FA043091FB044E
:1007C00088EC90E0B9010E943810CB019A838983AC
:1007D00003C01A82198200002DC085E290E025E254
:1007E00030E0F90120812061FC012083F89489E642
:1007F00090E023E0FC01208382EB90E020EEFC01FE
:10080000208384E690E024E630E0F90120812F7B0C
:10081000FC01208378941092710380916903909178
:100820006A03AE014A5F5F4F29813A81B9010E9494
:10083000880E00009BCFCF93DF93CDB7DEB785E264
:1008400090E025E230E0F90120812F7EFC01208339
:1008500084E690E024E630E0F90120812064FC0188
:100860002083DF91CF910895CF93DF93CDB7DEB78B
:10087000A4970FB6F894DEBF0FBECDBF8091710371
:10088000882F90E0009721F08130910579F05DC0CC
:1008900084E890E0FC011182108289E690E022E079
:1008A000FC01208381E08093710352C084E890E0D2
:1008B000FC018081918190937303809372038091F6
:1008C0007203909173039C01A9E0BCE80E946E1032
:1008D0000024880F991F001C880F991F001C892F66
:1008E000902D909373038093720380917203909183
:1008F0007303292F2F938F9387E291E0892F8F9392
:1009000087E291E08F93CE010196892F8F93CE01DC
:1009100001968F930E9491100F900F900F900F905F
:100920000F900F9080917603909177039E012F5F37
:100930003F4FB9010E94090E109271038091690323
:1009400090916A030E94110F03C01092710300007E
:10095000A4960FB6F894DEBF0FBECDBFDF91CF9146
:100960000895CF93DF93CDB7DEB7F8940E9470015E
:1009700088E10FB6F89480936000109260000FBE7B
:1009800085E290E025E230E0F90120812F7DFC0135
:10099000208385E290E025E230E0F90120812F7E7E
:1009A000FC01208385E290E025E230E0F90120811E
:1009B0002E7FFC01208384E290E024E230E0F90104
:1009C00020812062FC01208384E290E024E230E078
:1009D000F90120812061FC01208384E290E024E27F
:1009E00030E0F90120812160FC0120838BE290E05E
:1009F0002BE230E0F90120812B7FFC0120838AE289
:100A000090E02AE230E0F90120812B7FFC01208375
:100A100089E690E023E0FC0120838CE390E021E074
:100A2000FC0120838DE390E021E0FC01208384E43D
:100A300090E023E0FC01208385E490E02DE0FC01C0
:100A4000208387E490E02DE4FC0120838EE690E093
:100A50002EE630E0F90120812160FC01208384E64C
:100A600090E024E630E0F90120812F7DFC01208315
:100A700080E890E0FC01108281E890E022E0FC0137
:100A8000208382E890E0FC01108286E390E026E378
:100A900030E0F90120812762FC01208384E690E0A8
:100AA00024E630E0F9012081277FFC01208380EBE0
:100AB00090E0FC01108281EB90E022E0FC012083B9
:100AC00087E390E027E330E0F90120812160FC0119
:100AD000208380E790E020E730E0F9012081216069
:100AE000FC01208384E690E024E630E0F9012081D7
:100AF0002064FC01208385EC90E0FC01108284ECF2
:100B000090E029E1FC01208381EC90E028E1FC01E8
:100B1000208382EC90E027E0FC0120837894DF9131
:100B2000CF910895CF93DF93CDB7DEB72C970FB653
:100B3000F894DEBF0FBECDBF9E838D8378876F8311
:100B40005A8749873C872B8789859A859A83898329
:100B50008D819E819C838B8389819A819C01215008
:100B600031093A8329832B81FC01208389819A8171
:100B70009C01215031093A8329832B813C81232F09
:100B80003327FC01208389819A819C0121503109FE
:100B90003A832983FC01108289819A819C0121502A
:100BA00031093A832983FC01108289819A819C0151
:100BB000215031093A832983FC01108289819A816D
:100BC0009C01215031093A832983FC0110828981DB
:100BD0009A819C01215031093A832983FC011082BA
:100BE00089819A819C01215031093A832983FC0132
:100BF000108289819A819C01215031093A8329838D
:100C0000FC01108289819A819C01215031093A832B
:100C10002983FC01108289819A819C01215031092C
:100C20003A832983FC01108289819A819C01215099
:100C300031093A832983FC01108289819A819C01C0
:100C4000215031093A832983FC01108289819A81DC
:100C50009C01215031093A832983FC01108289814A
:100C60009A819C01215031093A832983FC01108229
:100C700089819A819C01215031093A832983FC01A1
:100C8000108289819A819C01215031093A832983FC
:100C9000FC01108289819A819C01215031093A839B
:100CA0002983FC01108289819A819C01215031099C
:100CB0003A832983FC01108289819A819C01215009
:100CC00031093A832983FC01108289819A819C0130
:100CD000215031093A832983FC01108289819A814C
:100CE0009C01215031093A832983FC0110828981BA
:100CF0009A819C01215031093A832983FC01108299
:100D000089819A819C01215031093A832983FC0110
:100D1000108289819A819C01215031093A8329836B
:100D2000FC01108289819A819C01215031093A830A
:100D30002983FC0110828F8198859C838B83898114
:100D40009A819C01215031093A8329832B81FC012E
:100D5000208389819A819C01215031093A8329831A
:100D60002B813C81232F3327FC01208389819A81A9
:100D70009C01215031093A832983FC011082898129
:100D80009A819C01215031093A832983FC01108208
:100D900089819A819C01215031093A832983FC0180
:100DA000108289819A819C01215031093A832983DB
:100DB000FC01108289819A819C01215031093A837A
:100DC0002983FC01108289819A819C01215031097B
:100DD0003A832983FC01108289819A819C012150E8
:100DE00031093A83298320E8FC01208389819A8193
:100DF0002C960FB6F894DEBF0FBECDBFDF91CF911A
:100E00000895CF93DF9300D0CDB7DEB79A8389835F
:100E10000F900F90DF91CF910895CF93DF93CDB7CF
:100E2000DEB7DF91CF910895CF93DF93CDB7DEB7D3
:100E3000DF91CF910895CF93DF93CDB7DEB72C9795
:100E40000FB6F894DEBF0FBECDBF998788877B872A
:100E50006A874C8788859985FC018585882F90E075
:100E60008C5C9E4FFC01808189838981882F90E072
:100E7000845D9E4FFC0180818A838981882F90E068
:100E800028853985820F931F0296FC018081882F67
:100E900090E08C5C9E4FFC0180818B838B81882F3E
:100EA00090E0845D9E4FFC0180818C838981982F26
:100EB000990F990F990F8B81890F8D838981882FC5
:100EC00090E02981222F30E048855985240F351F75
:100ED0002E5F3F4FF9012081322F2C812095232353
:100EE000422F28853985280F391F2E5F3F4FF90182
:100EF000408328853985820F931F0296FC018081EB
:100F0000882369F488859985FC018585982F8A81D5
:100F100080958923282F88859985FC0125878D81D7
:100F2000882F90E0880F991F8354994FFC0180818E
:100F300091819F838E838E819F81FC01138612860F
:100F40008E819F81FC01178216828E819F812A8566
:100F50003B85FC01318720878E819F81FC01848540
:100F6000982F8C8580958923282F8E819F81FC0165
:100F700024878E819F81FC0184858823B1F4909120
:100F800056068A81892B809356068981882F90E0A6
:100F90002981222F30E0295A394FF90130812C81E3
:100FA000232B895A994FFC0120832C960FB6F89475
:100FB000DEBF0FBECDBFDF91CF910895CF93DF93FA
:100FC00000D0CDB7DEB79A83898380916206909175
:100FD000630629813A81FC0137832683809162066A
:100FE00090916306FC018785882F90E0209162062E
:100FF00030916306F9012785222F30E0295A394FB5
:10100000F9012081422F2091620630916306F90197
:10101000208920952423422F9C01295A394FF90118
:101020004083895A994FFC018081882369F480911B
:10103000620690916306FC018189982F90958091BA
:101040005606892380935606809162069091630626
:10105000FC018785882F90E020916206309163061D
:10106000F9012785222F30E049815A81240F351F4D
:101070002E5F3F4FF9014081209162063091630657
:10108000F9012089422B29813A81820F931F029610
:10109000FC01408389819A81FC012585809162064B
:1010A00090916306FC018189282B89819A81FC013A
:1010B00025870F900F90DF91CF910895CF93DF9305
:1010C00000D0CDB7DEB79A83898380916206909174
:1010D0006306FC018785882F90E02091620630919D
:1010E0006306F9012785222F30E049815A81240FB8
:1010F000351F2E5F3F4FF9012081422F209162065C
:1011000030916306F901208920952423422F2981FB
:101110003A81280F391F2E5F3F4FF9014083298103
:101120003A81820F931F0296FC018081882391F4FB
:1011300089819A81FC018585282F80916206909192
:101140006306FC01818980958223282F89819A81F9
:10115000FC0125878091620690916306FC0114864C
:101160008091620690916306FC01178216820F90AF
:101170000F90DF91CF910895CF93DF9300D01F920E
:10118000CDB7DEB79B838A838A819B81FC0115865C
:1011900019820DC08981882F90E02A813B81820FBE
:1011A000931F0296FC01108289818F5F8983898158
:1011B000883080F30F900F900F90DF91CF910895BA
:1011C000CF93DF9300D0CDB7DEB7109264061092B4
:1011D00065061092660610926706109261061092DC
:1011E0003E061092530610923F061092400610924F
:1011F0004106109242061092430610924806109241
:10120000490610924A0610924B06109256061A8210
:1012100019820BC089819A81895A994FFC011082E9
:1012200089819A8101969A83898389819A818830FC
:10123000910580F3109245061092440610925506CF
:10124000109254061092630610926206109247069E
:10125000109246061A8219820EC089819A81880FDF
:10126000991F8354994FFC011182108289819A81C0
:1012700001969A83898389819A818034910568F3E4
:101280001A82198228C089819A810196880F991F34
:101290009C01220F331F220F331F220F331F820F97
:1012A000931F9C012B543D4F89819A81880F991F70
:1012B000AC01440F551F440F551F440F551F840F99
:1012C000951F89549D4FFC013183208389819A8128
:1012D00001969A83898389819A818930910598F250
:1012E00010925A031092590385EB92E090935106A5
:1012F000809350061A82198229C089819A810196A9
:10130000880F991F9C01220F331F220F331F220FBA
:10131000331F281B390BA9014859594F89819A81DC
:10132000880F991F9C01220F331F220F331F220F9A
:10133000331F281B390BC9018859994FFC01518370
:10134000408389819A8101969A83898389819A81D0
:101350008530910590F21092AF061092AE0688E6A5
:1013600096E09093600680935F062FE344E752E097
:1013700060E070E081E09BE00E94540F2EE344EBBC
:1013800052E060E070E08EE19BE00E94540F0F900D
:101390000F90DF91CF910895CF93DF93CDB7DEB754
:1013A000F894809161068150809361069091610666
:1013B00080913E06892B882309F04BC08091560608
:1013C000882F90E08C5C9E4FFC01808180933402DA
:1013D00080913402282F220F220F220F8091340295
:1013E000882F90E0895A994FFC018081882F90E0E6
:1013F0008C5C9E4FFC018081820F8093440690910B
:10140000440680914506981721F180914406882F63
:1014100090E0880F991F8354994FFC01808191813E
:101420009093550680935406809148069091490602
:10143000A0914A06B0914B060196A11DB11D809363
:10144000480690934906A0934A06B0934B060E9423
:10145000E0007894DF91CF910895CF93DF931F92AE
:10146000CDB7DEB7F89490913E0680916106892B46
:10147000882309F048C080915606882F90E08C5C44
:101480009E4FFC01808189838981282F220F220FA2
:10149000220F8981882F90E0895A994FFC01808121
:1014A000882F90E08C5C9E4FFC018081820F80939E
:1014B00044069091440680914506981721F1809149
:1014C0004406882F90E0880F991F8354994FFC01A0
:1014D00080819181909355068093540680914806AF
:1014E00090914906A0914A06B0914B060196A11D24
:1014F000B11D8093480690934906A0934A06B09385
:101500004B060E94830078940F90DF91CF9108954D
:10151000CF93DF9300D0CDB7DEB780913F0688230D
:10152000D9F580915606882F90E08C5C9E4FFC0187
:10153000808189838981882F90E0895A994FFC01A5
:101540008081882F90E08C5C9E4FFC0180818A8393
:101550008981982F990F990F990F8A81890F80930C
:101560004406809144068093450680914406882F66
:1015700090E0880F991F8354994FFC0180819181DD
:101580009093550680935406809154069091550689
:1015900090936306809362060E9453000F900F9011
:1015A000DF91CF910895CF93DF93CDB7DEB782E07F
:1015B00090E00E94E40FF8941092400610924106C9
:1015C0001092420610924306789488EC90E00E94B4
:1015D000E40FF8948091400690914106A091420654
:1015E000B091430680934C0690934D06A0934E060F
:1015F000B0934F0681E08093BC067894DF91CF9141
:101600000895CF93DF9300D0CDB7DEB79A83898357
:10161000F8948091400690914106A0914206B091C5
:1016200043060196A11DB11D80934006909341068B
:10163000A0934206B09343067894EACFCF93DF930A
:10164000CDB7DEB72B970FB6F894DEBF0FBECDBF78
:101650009F838E8304C080E991E00E94E40F809113
:10166000BC068823C1F3F89480914006909141060E
:10167000A0914206B091430680933D0790933E07A8
:10168000A0933F07B0934007809140069091410698
:10169000A0914206B091430689839A83AB83BC83B1
:1016A0001092400610924106109242061092430694
:1016B000789480914C0690914D06A0914E06B09181
:1016C0004F060097A105B10579F129813A814B8137
:1016D0005C8184E690E0DC010E947D10DC01CB019E
:1016E00020914C0630914D0640914E0650914F0688
:1016F000BC01CD010E944C10DA01C90194E6292FEA
:10170000281B822F8D838D81853624F084E680937B
:1017100052060CC08D8188231CF41092520606C01C
:101720008D818093520602C0109252060E940D07CE
:1017300088EC90E00E94E40F96CFCF92DF92EF9278
:10174000FF920F931F93CF93DF93CDB7DEB72F9701
:101750000FB6F894DEBF0FBECDBF8B837D836C8345
:101760005F834E83398728871B870A87FD86EC862F
:10177000DF86CE86F89480915006909151069A8328
:10178000898389819A81009709F4AAC089819A8105
:10179000FC01828193819093510680935006789446
:1017A00089819A812C813D81FC013183208389814B
:1017B0009A812B81FC01258789819A81FC011486FD
:1017C00089819A81FC01138612868B81282F2695A8
:1017D0002695269589819A81FC01278789819A819E
:1017E000FC018785882F90E0845D9E4FFC0120815D
:1017F00089819A81FC01218B8B81282F2770898117
:101800009A81FC01268789819A81FC018685882F2F
:1018100090E0845D9E4FFC01208189819A81FC01CA
:10182000208B89819A81FC011782168289819A8195
:10183000FC0111861086F8948B81882F90E0880F28
:10184000991F8354994F29813A81FC013183208368
:10185000209146063091470689819A81FC013383A5
:10186000228389819A81FC01158214828091460627
:1018700090914706009749F080914606909147065F
:1018800029813A81FC013583248389819A8190934F
:1018900047068093460689819A81FC01918980914F
:1018A0005606892B8093560689819A81FC0187858B
:1018B000882F90E029813A81F9012785222F30E095
:1018C000295A394FF901408129813A81F90120894A
:1018D000242B895A994FFC012083789480E002C020
:1018E000789486E42F960FB6F894DEBF0FBECDBF76
:1018F000DF91CF911F910F91FF90EF90DF90CF90EC
:101900000895CF93DF9300D0CDB7DEB70E941407C0
:1019100080914606909147069A83898359C0F8942E
:1019200089819A81FC0182859385009709F448C0DA
:1019300089819A81FC01828593859C01215031091E
:1019400089819A81FC013387228789819A81FC01F0
:10195000828593850097A1F589819A81FC01848510
:10196000882F90E088709927009719F589819A81CE
:10197000FC01918980915606892B809356068981B6
:101980009A81FC018785882F90E029813A81F901AD
:101990002785222F30E0295A394FF90140812981CA
:1019A0003A81F9012089242B895A994FFC0120831F
:1019B00007C089819A8121E030E0FC0133872287CA
:1019C00089819A81FC01828193819A8389837894A9
:1019D00089819A81FC0185858F3309F0A0CFF89425
:1019E0008091640690916506A0916606B0916706A5
:1019F0000196A11DB11D8093640690936506A09386
:101A00006606B093670678940F900F90DF91CF91A0
:101A10000895CF93DF9300D000D0CDB7DEB79C837D
:101A20008B83F89480915F06909160069A838983F6
:101A300080915F0690916006009759F080915F0653
:101A400090916006FC018081918190936006809363
:101A50005F06789489819A81009781F089819A81C3
:101A600021E0FC01248789819A812B813C81FC0142
:101A70003183208389819A810E94BC0889819A815F
:101A80000F900F900F900F90DF91CF910895CF930B
:101A9000DF93CDB7DEB728970FB6F894DEBF0FBE41
:101AA000CDBF9C838B837E836D8358874F83F8944F
:101AB0008B819C81FC018485813049F078948F81F1
:101AC000988521E0FC01208380E090E099C08B8123
:101AD0009C81FC01808191819A83898389819A818B
:101AE000009759F08B819C81FC01118210827894BF
:101AF0008F819885FC01108281C0809161068823C6
:101B000039F078948F81988522E0FC01208376C09B
:101B1000809162069091630620916206309163067F
:101B2000F90124852260FC0124878091620690914E
:101B300063062D813E81FC01338722878B819C8146
:101B40000E94DE0778940E942D0AF8948091620624
:101B500090916306FC01808591859A8389838981B0
:101B60009A810097D1F08091620690916306FC0102
:101B7000118610868091620690916306FC0114869E
:101B80008091620690916306FC0117821682789418
:101B90008F819885FC01108231C0809162069091FE
:101BA0006306FC018485882F90E082709927009756
:101BB00069F08B819C810E945E0878941A82198258
:101BC0008F8198852AE0FC01208318C08B819C813D
:101BD000FC01808191819A8389838B819C81FC01A6
:101BE000118210828091620690916306FC01178237
:101BF000168278948F819885FC01108289819A8160
:101C000028960FB6F894DEBF0FBECDBFDF91CF91FF
:101C10000895CF93DF9300D000D0CDB7DEB79A837D
:101C200089837C836B83F89489819A81FC01848504
:101C3000813019F0789481E026C089819A81FC0175
:101C40008585882369F02B813C8189819A8142E0D6
:101C5000B9010E941B0778940E942D0A80E013C0EE
:101C600089819A81FC0180819181009719F0789493
:101C700084E109C089819A812B813C81FC013183F7
:101C80002083789480E00F900F900F900F90DF9159
:101C9000CF910895CF93DF9300D000D0CDB7DEB7BA
:101CA0009C838B83F89480915F06909160069A8361
:101CB000898380915F0690916006009759F080912A
:101CC0005F0690916006FC0180819181909360068F
:101CD00080935F06789489819A81009781F0898149
:101CE0009A8123E0FC01248789819A812B813C81A0
:101CF000FC013387228789819A810E94BC088981EF
:101D00009A810F900F900F900F90DF91CF910895CF
:101D1000CF93DF9300D000D000D0CDB7DEB79A8349
:101D200089837C836B835E834D83F89489819A8158
:101D3000FC018485833031F078948D819E8121E08F
:101D4000FC01208389819A81FC018285938500971B
:101D500099F089819A81FC01828593859C012150AB
:101D6000310989819A81FC013387228778948D819A
:101D70009E81FC0110824CC080916106882339F05D
:101D800078948D819E8122E0FC01208341C0809166
:101D90006206909163062091620630916306F90114
:101DA00024852160FC01248780916206909163065E
:101DB0002B813C81FC013387228789819A810E9493
:101DC000DE0778940E942D0AF89480916206909123
:101DD0006306FC018485882F90E081709927009725
:101DE00059F089819A810E945E0878948D819E8144
:101DF0002AE0FC0120830CC080916206909163066A
:101E0000FC011782168278948D819E81FC011082DC
:101E100026960FB6F894DEBF0FBECDBFDF91CF91EF
:101E20000895CF93DF9300D0CDB7DEB79A8389832F
:101E3000F89489819A81FC018485833019F0789423
:101E400081E02DC089819A81FC018585882361F01C
:101E500089819A8141E060E070E00E941B077894DC
:101E60000E942D0A80E01BC089819A81FC01828535
:101E700093858F3FFFEF9F0781F089819A81FC0155
:101E8000828593859C012F5F3F4F89819A81FC0158
:101E900033872287789480E002C0789482E30F90A1
:101EA0000F90DF91CF910895CF92DF92EF92FF9242
:101EB0000F931F93CF93DF93CDB7DEB72A970FB65B
:101EC000F894DEBF0FBECDBF9D838C837F836E836E
:101ED000598748872A878A85803410F08AE265C04E
:101EE000F8948A85882F90E0880F991F8354994F22
:101EF000FC0180819181009709F055C08A85882F67
:101F000090E0880F991F8354994F21E030E0FC0145
:101F1000318320837894488559856E817F818C81B7
:101F20009D8120E030E00E9492059A838983898117
:101F30009A81C12CD12CE12CF12C00E010E020E0A2
:101F400030E040E050E0BC018A850E949D0B8B830D
:101F50008B818823D1F4F894809153068F5F80930E
:101F600053068A85882F90E0880F991F8354994FD4
:101F7000FC01808191810E940107789480913F0645
:101F8000882379F00E942D0A0CC0F8948A85882F46
:101F900090E0880F991F8354994FFC0111821082A1
:101FA00078948B8102C0789488E22A960FB6F894D0
:101FB000DEBF0FBECDBFDF91CF911F910F91FF907C
:101FC000EF90DF90CF900895CF93DF9300D0CDB7FF
:101FD000DEB79A83898389819A81009709F443C087
:101FE000F8948091620690916306FC018785882FA2
:101FF00090E02091620630916306F9012785222F37
:1020000030E0295A394FF9012081422F2091620690
:1020100030916306F901208920952423422F9C01E9
:10202000295A394FF9014083895A994FFC0180811F
:10203000882369F48091620690916306FC0181898E
:10204000982F90958091560689238093560680910B
:1020500062069091630629813A81FC0133872287C9
:1020600078940E942D0A0F900F90DF91CF910895E0
:10207000AA1BBB1B51E107C0AA1FBB1FA617B707AE
:1020800010F0A61BB70B881F991F5A95A9F78095CA
:102090009095BC01CD010895A1E21A2EAA1BBB1B8D
:1020A000FD010DC0AA1FBB1FEE1FFF1FA217B30724
:1020B000E407F50720F0A21BB30BE40BF50B661F3A
:1020C000771F881F991F1A9469F7609570958095FE
:1020D00090959B01AC01BD01CF010895A29FB00175
:1020E000B39FC001A39F700D811D1124911DB29F4C
:1020F000700D811D1124911D08950E946E10A59FE1
:10210000900DB49F900DA49F800D911D11240895F2
:10211000FC0101900020E9F7809590958E0F9F1F9C
:102120000895AEE0B0E0E7E9F0E10C9439130D89D1
:102130001E8986E08C831A8309838FEF9FE79E8335
:102140008D83AE01475E5F4F6F89788DCE0101961A
:102150000E94B310EF81F885E00FF11F10822E96D8
:10216000E4E00C945513ACE0B0E0E9EBF0E10C9442
:102170002B137C016B018A01FC011782168283817B
:1021800081FFBDC1CE0101964C01F7019381F6019B
:1021900093FD859193FF81916F01882309F4ABC171
:1021A000853239F493FD859193FF81916F018532DA
:1021B00029F4B70190E00E949B12E7CF512C312CFB
:1021C00020E02032A0F48B3269F030F4803259F0F4
:1021D000833269F420612CC08D3239F0803339F4B8
:1021E000216026C02260246023C0286021C027FD12
:1021F00027C030ED380F3A3078F426FF06C0FAE0F9
:102200005F9E300D1124532E13C08AE0389E300D8E
:102210001124332E20620CC08E3221F426FD6BC1B6
:10222000206406C08C3611F4206802C0883641F460
:10223000F60193FD859193FF81916F018111C1CFCB
:10224000982F9F7D9554933028F40C5F1F4FFFE328
:10225000F9830DC0833631F0833771F0833509F08F
:102260005BC022C0F801808189830E5F1F4F442428
:102270004394512C540115C03801F2E06F0E711CCB
:10228000F801A080B18026FF03C0652D70E002C078
:102290006FEF7FEFC5012C870E9490122C01830104
:1022A0002C852F77222E17C03801F2E06F0E711C9B
:1022B000F801A080B18026FF03C0652D70E002C048
:1022C0006FEF7FEFC5012C870E9485122C012C85B2
:1022D0002068222E830123FC1BC0832D90E048162A
:1022E0005906B0F4B70180E290E00E949B123A9444
:1022F000F4CFF50127FC859127FE81915F01B7019D
:1023000090E00E949B1231103A94F1E04F1A51086C
:102310004114510471F7E5C0843611F0893639F55E
:10232000F80127FF07C060817181828193810C5F72
:102330001F4F08C060817181882777FD8095982F95
:102340000E5F1F4F2F76B22E97FF09C09095809594
:10235000709561957F4F8F4F9F4F2068B22E2AE076
:1023600030E0A4010E94CD12A82EA81844C08537E1
:1023700029F42F7EB22E2AE030E025C0F22FF97F1B
:10238000BF2E8F36C1F018F4883579F0B4C080378D
:1023900019F0883721F0AFC02F2F2061B22EB4FE84
:1023A0000DC08B2D8460B82E09C024FF0AC09F2F5A
:1023B0009660B92E06C028E030E005C020E130E08C
:1023C00002C020E132E0F801B7FE07C060817181F0
:1023D000828193810C5F1F4F06C06081718180E014
:1023E00090E00E5F1F4FA4010E94CD12A82EA818E6
:1023F000FB2DFF77BF2EB6FE0BC02B2D2E7FA51415
:1024000050F4B4FE0AC0B2FC08C02B2D2E7E05C0CD
:102410007A2C2B2D03C07A2C01C0752C24FF0DC003
:10242000FE01EA0DF11D8081803311F4297E09C07F
:1024300022FF06C07394739404C0822F867809F03B
:10244000739423FD13C020FF06C05A2C731418F494
:10245000530C5718732C731468F4B70180E290E0A2
:102460002C870E949B1273942C85F5CF731410F463
:10247000371801C0312C24FF12C0B70180E390E06F
:102480002C870E949B122C8522FF17C021FF03C0BE
:1024900088E590E002C088E790E0B7010CC0822F89
:1024A000867859F021FD02C080E201C08BE227FD51
:1024B0008DE2B70190E00E949B12A51438F4B70199
:1024C00080E390E00E949B125A94F7CFAA94F40103
:1024D000EA0DF11D8081B70190E00E949B12A110CE
:1024E000F5CF332009F451CEB70180E290E00E948D
:1024F0009B123A94F6CFF7018681978102C08FEF45
:102500009FEF2C96E2E10C944713FC01059061507B
:1025100070400110D8F7809590958E0F9F1F0895F9
:10252000FC016150704001900110D8F780959095A2
:102530008E0F9F1F08950F931F93CF93DF93182F34
:10254000092FEB018B8181FD03C08FEF9FEF20C02E
:1025500082FF10C04E815F812C813D81421753075D
:102560007CF4E881F9819F012F5F3F4F39832883F5
:10257000108306C0E885F985812F0995892B29F7F5
:102580002E813F812F5F3F4F3F832E83812F902FDE
:10259000DF91CF911F910F910895FA01AA2728305A
:1025A00051F1203181F1E8946F936E7F6E5F7F4F20
:1025B0008F4F9F4FAF4FB1E03ED0B4E03CD0670F9C
:1025C000781F891F9A1FA11D680F791F8A1F911DEF
:1025D000A11D6A0F711D811D911DA11D20D009F43F
:1025E00068943F912AE0269F11243019305D319381
:1025F000DEF6CF010895462F4770405D4193B3E06A
:102600000FD0C9F7F6CF462F4F70405D4A3318F010
:10261000495D31FD4052419302D0A9F7EACFB4E0C1
:10262000A6959795879577956795BA95C9F7009779
:102630006105710508959B01AC010A2E069457951A
:10264000479537952795BA95C9F7620F731F841F71
:10265000951FA01D08952F923F924F925F926F9207
:102660007F928F929F92AF92BF92CF92DF92EF9222
:10267000FF920F931F93CF93DF93CDB7DEB7CA1BA3
:10268000DB0B0FB6F894DEBF0FBECDBF09942A88CE
:10269000398848885F846E847D848C849B84AA8476
:1026A000B984C884DF80EE80FD800C811B81AA8103
:1026B000B981CE0FD11D0FB6F894DEBF0FBECDBFCE
:0826C000ED010895F894FFCF2D
:1026C8004E6F206572726F720A0D004D65646975F0
:1026D8006D204572726F720A0D00484947482045BF
:1026E80072726F720A0D0025750A0D000102040846
:1026F80010204080000001000200010003000100DA
:1027080002000100040001000200010003000100B2
:1027180002000100050001000200010003000100A1
:102728000200010004000100020001000300010092
:102738000200010006000100020001000300010080
:102748000200010004000100020001000300010072
:102758000200010005000100020001000300010061
:102768000200010004000100020001000300010052
:10277800020001000700010002000100030001003F
:102788000200010004000100020001000300010032
:102798000200010005000100020001000300010021
:1027A8000200010004000100020001000300010012
:1027B8000200010006000100020001000300010000
:1027C80002000100040001000200010003000100F2
:1027D80002000100050001000200010003000100E1
:1027E80002000100040001000200010003000100D2
:0427F80002000100DA
:00000001FF
